:040000008A11112828
:10000800FE00030EFA000408FB000A08FC00831235
:1000180003137F08FD008A11DE2B8A15102B0313AA
:10002800061D1928831621141B28831621108312F4
:10003800851B21288316A11423288316A1102108C3
:10004800220603195D280230A30A2302031C5E2836
:10005800A21CA11C39283230A50AA6002414A70125
:10006800A8018A1564238A113D28A218A1183D28E1
:1000780024108316221C211C4928241A5328A4164C
:1000880083122E148316A4135328221821185328D8
:10009800A41E5328C0238A112E108316A41283127B
:1000A8000317DC01DD0183160313A3012108A20055
:1000B8005E28A301260803196328A60384282408B8
:1000C8003139031D82288312AD1FAE1B8228831687
:1000D800250B8228073083124602031C772846081E
:1000E800113A031D822897231130AC11A501A601EE
:1000F8008A11EC258A11A0238A11C5018316A5014E
:10010800241CB3280030280296300319270203184C
:100118009528A70A0319A80A83120317DC01DD0131
:10012800B3282410A501C0238A112E1097238A1101
:100138000030AD1FA2280C30AD13A4280B30AD172A
:10014800C7001930C8000A30C9004330A0238A11FB
:1001580000302C238A11BB238A1194238A11831619
:100168000313A508031DBC28210805390319080035
:1001780083120317DC01DD0108002E1C5C290730FF
:100188002E104602031CD02846080A3A0319D02824
:100198004608113A031D0800AD1FAE1B08003C08B5
:1001A800031DAE19D828EB289723003007308A158D
:1001B8000A248A11A0238A1100302C238A11BC0139
:1001C800460B08000030AC11A501A601942B851D33
:1001D800FB2897238A1100300D30B5238A11A023FC
:1001E8008A1100302C238A11BB238A11942B8A157B
:1001F800BA268A116108BB006008BA0001303B02C8
:100208007C3003193A020318142997230E308A11F7
:10021800EC258A11A023C501AC11A501A60108008F
:100228005A300317E400A530E50003130E100D142F
:10023800831607080F3930388700A0018312031787
:10024800DA01DB0103133508B9003408B800AD1C26
:1002580032293508C2003408C100AD103308803A8D
:10026800031D3E29C83005120511A900A800AB00DE
:10027800AA004829330B41293629C830051505122B
:10028800A900A800AB01AA01C8300512A900A8005E
:100298003230A701B001B601B701AE12AE100B1291
:1002A8000317DE01DF01D9000B160313AE17080090
:1002B800AE1F08002E1F6329C0238A1109290A309E
:1002C8003002031C7A29C0238A1197230030073093
:1002D8008A150A248A11A0238A1100302C238A1136
:1002E8000030BC01AC11A501A601942B0330031703
:1002F8005F02E83003195E02031C96298316031374
:10030800A41B9629C0238A1197238A1100300F3025
:10031800B5238A11A0238A1100302C238A11BB230C
:100328008A11942B0530831203175F02DC300319FE
:100338005E02031CB52983160313A41FB529C02325
:100348008A1197238A1100301930C701C800433039
:10035800C901A0238A1100302C238A11BB238A11DA
:10036800942B83120313AE1C08000330C7018A15AF
:1003780019278A114808BB004708BA00AE1C0800B4
:10038800AE1E442A0E303B02D83003193A02031835
:10039800D0292E17051608000630303E8400831336
:1003A8000008840A0004031908003A08C7003B083B
:1003B800C800C901CA013608CB003708CC00CD01F6
:1003C800CE018A1583278A114708E6004808E70006
:1003D8004908E8004A08E9000C300310E90CE80C69
:1003E800E70CE60CFF3E031DF1296708EB006608E1
:1003F800EA00222A6A08D3006B08D4000930D50124
:10040800D601DA01D900C430D800D701182A6A0801
:10041800D3006B08D4000830D501D601DA01D90021
:100428003D30D8006030D7008A15B6278A115408A5
:10043800EB005308EA002D2AB3012D2A3308003AAD
:100448000319FE29013A03190B2A813A0319202AB4
:100458002D2A00306B02C83003196A02031C372AA0
:10046800C830A900080000306B023C3003196A024A
:100478000318412A3C30A90008006A08A9000800AE
:100488000E303B02E23003193A02031CCD29AE16A6
:10049800B2012C102C132C11AC14AC1B582AA1013E
:1004A800AC11A501A601AC1719302C14AC15C70165
:1004B800C70AC800C830C9004330A0233C08B100AF
:1004C8000230C5000800460803190800440803194B
:1004D800032BD82A093044020318012B0730FF30B8
:1004E8002C238A11FF3094238A11012B0E302C23E0
:1004F8008A11012B3C08B1000130A40624080C38ED
:100508002C238A114418012B1430C400012B441CDD
:10051800922A003008302C238A11012B01300C302C
:10052800B1012C238A11012B441C9C2A00309D2ADE
:10053800330810302C238A11012B441CB72A460893
:100548000E3A031DAF2A07300E302C238A11FF30D4
:1005580094238A11012B003000302C238A1100309B
:1005680094238A11012B07300E302C238A11FF3077
:1005780094238A11012B441CC32A0030012B330811
:10058800012B33080E302C238A11FF3094238A1153
:10059800012B0E302C238A11012B0D302C238A11AC
:1005A800FF3094238A11012B4608013A03197A2A4D
:1005B800053A03197E2A013A0319D12A033A031985
:1005C800CD2A013A03198B2A0D3A0319BF2A013A99
:1005D8000319BF2A073A0319BF2A013A0319A12AA6
:1005E800033A0319A12A013A0319982A1F3A031951
:1005F8006E2A013A0319C52A012BC40308000E30DC
:10060800460203180B2B0730460203180E2B003046
:100618002C238A1146080E3A03191A2B4608103A59
:1006280003191A2B4608113A031D1E2B00300030FF
:1006380094238A1146030319252B4608053A031DFE
:100648002A2B0030AC11A501A6019423C60108008D
:10065800CA00C701C9012C12782B4A1D482B310842
:10066800C90064304902031C3C2B0630C704482BE0
:10067800C8010A304902031C482B0A30C9020A3053
:10068800C80A4802031C3D2BCA1947144A18C71741
:10069800CA1C8F2B003003176302031D5D2B00302B
:1006A8006202031D5D2BD6306102031D5D2BD8301D
:1006B80060020318612B7030722B00306302031D37
:1006C8006F2B01306202031D6F2B8E306102031DF8
:1006D8006F2B703060020318752B30300313C7047A
:1006E8008F2B031347168F2B4A08003A03198F2BB9
:1006F8000F3A03198F2B1F3A03198F2B503A0319FE
:100708008F2BC03A03198F2B403A03198F2B3F3A8E
:1007180003198F2B312BA301AC122C1608000800EB
:100728002C122C16080064302C102C13AC132C112E
:10073800AC14A200A1010800CA00033E84004708C7
:10074800831380004A08013E8400490880004A0853
:100758008400480880004A08023E84004808800057
:100768000800C7001930C8000430C90043340030FD
:10077800AC11A501A60108008312AE1F0800AE1334
:100788000D102E1305160317E401E5014F308316EB
:100798000313A40507080F3990388700831208301F
:1007A80085152C102C13AC102C15AC172C14C40068
:1007B800C50108000E1EE82BAE1B2E1BE62B0516E6
:1007C80005152E170E12182C0E1CF52BAE1BEE2B32
:1007D8000D1CF32B2E1BF32B051605152E170E10CB
:1007E800182C0C1E092C64300317D90A5902031C53
:1007F800002CD90103132D174B248A11AE1B2E1B75
:10080800072C23248A110C12182C0C1C0D2C0C10EC
:10081800182C8C1C112C8C10182C0C1D152C0C1140
:10082800182C8C1D182C8C117D08FF007C088A0060
:100838007B0884007A0E8300FE0E7E0E0900C83005
:100848002702031C392CA7012908A8002B08AA0095
:1008580028080319312C0512322C05162A08031909
:10086800372C0511452C0515452C27080319452C4F
:1008780028082706031D412C05162A0827060319F0
:10088800372C2708053A03192E16A70A0800F8017D
:10089800F901F901790849258A110830F90A79021C
:1008A800031C4E2CF9010630F000831203132F08A5
:1008B800B4248A11A0258A11AA258A1100268A1132
:1008C80000380319AC2C0630F0002F08B4248A1124
:1008D800A0258A11AA258A1100268A11FF3EF70051
:1008E8000630F0002F08B4248A11A025F5007408FA
:1008F8000318013EF60001307507840076080318D6
:10090800760AFF008A1100268A11FF3EF800770850
:10091800F300A0300310F30D0310F30D0310F30DD3
:100928007307F40078087407F500840083178008BB
:100938000319A72CF0017708C2248A11F001F00AE4
:100948007808C2248A110330F90A7902031C572C4B
:1009580083120313AF0A2F08123A0319AF010800D4
:10096800F200F10170087218F1070310F00D03107E
:10097800F20CF208031DB62C71080800F1003C2D9A
:10098800831603130D080F3960388D00700803199A
:10099800D02C83128615080083128611080083164E
:1009A80003131008F0390638900070080319DF2C7B
:1009B8008312071408008312071008008316031314
:1009C80010080F396038900070080319EE2C831254
:1009D80087140800831287100800831603130E0873
:1009E800F03906388E0070080319FD2C831206169C
:1009F8000800831206120800831603130E080F3925
:100A080060388E00700803190C2D831286160800B2
:100A1800831286120800831603130F08F03906386C
:100A28008F00700803191B2D831206170800831204
:100A380006130800831603130F080F3960388F0058
:100A4800700803192A2D831286170800831286134B
:100A58000800831603130C08F03906388C00700858
:100A68000319392D83120614080083120610080092
:100A780071088400083004020318080008308A004E
:100A88000310040D003E82000800F000932D83122D
:100A98000313861583160D080F3910388D000800CA
:100AA80083120313071483161008F03901389000D5
:100AB8000800831203138714831610080F3910389F
:100AC8009000080083120313061683160E08F039E7
:100AD80001388E00080083120313861683160E0849
:100AE8000F3910388E000800831203130617831677
:100AF8000F08F03901388F00080083120313861796
:100B080083160F080F3910388F000800831203135B
:100B1800061483160C08F03901388C000800700898
:100B28008400083004020318080008308A00031003
:100B3800040D103E82000800DC3EF30086300318E6
:100B4800013EF4000310790D73070800840074084F
:100B58000318740AFF0008002D1DDA2D051BD72D78
:100B680083160330A00A2002031C080083122D11EB
:100B7800AD118316A001831204300317DC01DD01D7
:100B8800031346020318CC2D073046020318080049
:100B98000630EC258A11A0230030C501AC11A5014F
:100BA800A6018A11942B8316A0010800051FD72DD2
:100BB80083160330A00A2002031C080083122D1597
:100BC800AD118316A00183120317DA01DB010800B7
:0C0BD800C7001930C8000830C9004334C1
:100C0000FF1B0A2E83137F1883170008840A031919
:100C1000FF0A08007F087F398A000408840A031944
:100C2000FF0A8200E4340C34F2340C3400340D3406
:100C30000E340D341C340D342A340D3438340D3454
:100C400046340D3454340D3462340D3470340D3464
:100C50007A340D3484340D348E340D3498340D349C
:100C6000A2340D34AC340D34B6340D34C0340D34EC
:100C7000CA340D34D4340D34DE340D34E8340D343C
:100C8000F2340D34FC340D3406340E3410340E348A
:100C90001A340E3424340E342E340E3438340E34D8
:100CA0003C340E3440340E3444340E3448340E3464
:100CB0004C340E3450340E3454340E3458340E3414
:100CC0005C340E3460340E3464340E3468340E34C4
:100CD0006C340E3470340E3474340E3478340E3474
:100CE0007C340E3480340E3484340E3488340E3424
:100CF0008C340E3490340E3494340E3498340E34D4
:100D00009C340E34A0340E34A4340E34A8340E3483
:100D1000AC340E34B0340E34B4340E34B8340E3433
:100D2000BC340E34C0340E34C4340E34C8340E34E3
:100D3000CC340E34D0340E34D4340E34D8340E3493
:100D4000E2340E34EC340E34F6340E3400340F3406
:100D50000A340F3414340F341E340F3428340F3453
:100D600032340F343C340F3446340F3450340F34A3
:100D70005A340F3464340F346E340F3478340F34F3
:100D800082340F348C340F3496340F34A0340F3443
:100D9000A5340F34AA340F34AF340F34B4340F34C5
:100DA000B9340F34BE340F34C3340F34C8340F3465
:100DB000CD340F342C341034013402340134033474
:100DC0000134043401340534013406340134073469
:100DD000023401340234033402340434023405345E
:100DE0000234063402340734033401340334023449
:100DF0000334043403340534033406340334073431
:100E00000434013404340234043403340434053427
:100E10000434063404340734053401340534023410
:100E200005340334053404340534063405340734FA
:100E300006340134063402340634033406340434F0
:100E400006340534063407340734013407340234D9
:100E500007340334073404340734053407340634C4
:100E600008340134083402340834033408340434B8
:100E700008340534083406340134083402340834A4
:100E800000340034083407340034003400340034B3
:100E90003F3406345B344F3466346D347D3407346C
:100EA0007F346F3477347C343A345E34793471343F
:100EB0000034383476345C34D001CA1F6C2FC70933
:100EC000C809C909CA09C70A0319C80A0319C90AFE
:100ED0000319CA0AD001D00ACE1F7B2FCB09CC0937
:100EE000CD09CE09CB0A0319CC0A0319CD0A03197F
:100EF000CE0A0130D006D101D201D301D4014A0873
:100F00004904480447040319BA2FCF01CF0ACA1B6A
:100F10008F2F0310C70DC80DC90DCA0D862F0310E2
:100F2000D10DD20DD30DD40D4A084E02031DA22FB0
:100F300049084D02031DA22F48084C02031DA22F91
:100F400047084B02031CB42F4708CB024808031C78
:100F5000480FCC024908031C490FCD024A08031C64
:100F60004A0FCE0251140310CA0CC90CC80CC70C8E
:100F7000CF0B8F2F50080319C82FD109D209D309DD
:100F8000D409D10A0319D20A0319D30A0319D40ABE
:100F90005408CA005308C9005208C8005108C700C5
:100FA0000800203083138400803004020318DC2FF3
:100FB00003138001840AD42FA0308400F03004028F
:100FC0000318E62F03138001840ADE2F20308317D5
:100FD0008400603004020318F12F03138001840A97
:100FE000E92F831383120313080064008001840A2D
:0A0FF0000406031900340406F62F6E
:101000008A11C42C8A11D32C8A11E22C8A11F12C5A
:101010008A11002D8A110F2D8A111E2D8A112D2D56
:101020008A114B2D8A11542D8A115D2D8A11662D3E
:101030008A116F2D8A11782D8A11812D8A118A2D9E
:1016200020308313840047308A11F5278A15A030B3
:101630008400B1308A11F5278A15A0308317840001
:10164000E0308A11F52783018A15CA2CAC1D0800E9
:10165000260803192D2BA60308000A30A600322BFA
:10166000A5014C2B2508013A03194C2B033A031909
:101670004C2B013A03194C2B073A03194C2B013A16
:1016800003194C2B033A03194C2B013A03194C2B29
:101690000F3A03194C2B302BAC1BAC1C552B0830CC
:1016A000250203180800A50A0800AC1B2C1D5C2BA2
:1016B0002508031DA50308002D1D0800083025027C
:1016C000031C532BA50108006D2BB301B30A792B22
:1016D0008030B300792BB301792B83123308003AA1
:1016E0000319652B013A0319682B813A03196B2BF7
:1016F000792B0730AD144602031C862B46080A3AA4
:101700000319862B4608113A031D08008A119723F6
:101710008A1500300A30C7001930C8000630C900E9
:1017200043308A11A0238A152D1D9A2B4608113AA1
:10173000031D080000308A112C238A158A11BB234F
:101740008A11942B831203132D1DF72BC608031D3A
:10175000B12B04300A248A11A0238A15A401C501E3
:10176000AC15AD19DB2B0F3035026E300319340286
:10177000031CD72B103035027C3003193402031CB4
:10178000051BC62B64303C02031CD72B003003170B
:101790005B02143003195A020318D22BDA0A031918
:1017A000DB0A0800DA01DB010313AD15080003179B
:1017B000DA01DB0108004608043A031D08003C0872
:1017C000643A031D08000530C7001930C8002830EE
:1017D000C90043308A11A0233C08B100C50103179A
:1017E000DA01DB010313AC11A501A6010800C6084C
:1017F00003192C180800013003175D022C3003195F
:101800005C020318072CDC0A0319DD0A0800031325
:101810002D100800C7001930C8001430C900433427
:10182000C6080319AC1E0800AD1E080040248A1526
:1018300002300317DC00DD0103175D085C040313AD
:1018400003192F2C2D1F1C2C2D1364000130831223
:101850000317DC020030031CDD03DD021C2C2D14F9
:1018600008000F08FC3903388F005A248A158312A8
:1018700003138F115A248A15831203130F155A2C40
:101880002D1A2D12051F051F080011171417151604
:101890006B248A158B018D010F165A248A1563005B
:1018A000831203130F125A248A1592248A156B246B
:1018B0008A15AD2C000000000000000000000000B0
:1018C0000000000000000000000000000000000018
:1018D000000000000800E8308312031385008930FF
:1018E000831688003630870086001130850004306A
:1018F00083128600663083168F008E00F0308D00D4
:1019000066308C008312870183169000D8308312D2
:1019100003178505F83003139805053098043F3008
:10192000990508008312F03003130D100E10960570
:1019300003309604161796161616F3308316810593
:101940000C30810464008B118312FC3003138C1162
:1019500083168105033081040800831211170B12CE
:101960000C121112F030910591149C3081009000FE
:101970001417F0308B128C129405053094048330C8
:10198000920093001516FC300B130C1395050B16E3
:101990001113080064008B01831203138D018A1553
:1019A00031248A158A156B248A158A1592248A1582
:1019B0008A15AD248A1503176508A53A5A3003190C
:1019C0006406031D072D0313AE172E108A11C023C2
:1019D0008A158A1197238A150E30C7001930C8005E
:1019E0000830C90043308A11A0238A15051B2D1524
:1019F000061DFC2C831622148316A401A501831254
:101A00002D120317DC01DD0103132D14252D8A117E
:101A1000D1278A1560300313B301B30A84008317FA
:101A20008001840A8001840A8001840A80018A116D
:101A300097238A151030C7001930C8001030C9002C
:101A400043308A11A0238A152D162D1F9C2D2D138E
:101A5000640083120E300313C701C70A8A151927C1
:101A60008A154808B5004708B400C7003508C80003
:101A70004B30C901CA01CE01CD00CC01CB018A1186
:101A80005C278A154808B5004708B4008A15A625C2
:101A90008A15831203132D1A8D2DAE1F842D0A3043
:101AA0003502F030031934020318582DB00A592DAD
:101AB000B001EA3003175F02603003195E020318B9
:101AC0008A2DDE0A0319DF0A00305F020230031993
:101AD0005E02031C722D0313AE1C722D3508B70075
:101AE0003408B6000317600A0319610A0319620A71
:101AF0000319630A03198A2DE00A0319E10A03197D
:101B0000E20A0319E30A8A2D8A11B0258A158A157B
:101B1000A2238A158A1113208A15831203134508FC
:101B20000319942DC503992D4308C5008A11672216
:101B30008A158A1526238A152D1CA22D8A11C120EB
:101B40008A15252D8A1510248A15252DAD1E822E65
:101B5000AE1FAF2DBD01BE01BF01C00108002D1D8C
:101B6000112E3408143EC70035080318013EC80082
:101B700042084802031DBE2D41084702031CAD1850
:101B8000CC2DBD01BE01B4268A1503193F02031CEA
:101B9000F02DBF01C001F02DBF01C001AD14AD1982
:101BA000EA2D0F303502B430031934020318EA2D40
:101BB00003103C0DAD268A1100268A15C7008A1134
:101BC00000268A15C8003502031DE82D4708340297
:101BD000031CEE2DBD0A0319BE0AF02DBD01BE0186
:101BE0000A303C02031CFC2D5A303C020318FC2D29
:101BF000B830CA000B30FF2DA030CA000F30CB0028
:101C00003E02031D052E4A083D02031C08006430F5
:101C1000BD01BE013C02031CBC0A3C08031DAE1101
:101C200008000230BD01BE013C02031C712E0310EE
:101C30003C0DAD268A1100268A15C7008A110026A0
:101C40008A15C8003502031D272E470834020318E1
:101C50002D2EBF0A0319C00A2F2EBF01C00100306C
:101C60004002643003193F02031C0800BF01C00199
:101C70003C08CC00CC080319502ECC0303104C0DAB
:101C8000AD268A1100268A15C7008A1100268A15FA
:101C9000C8003502031D4E2E47083402031C3A2E9D
:101CA0004C081E3EC700003003180130C800803ABF
:101CB000C90080304902031D5F2E3C08470203180B
:101CC0000800831203134C08BC006F2EB4268A153B
:101CD00003193F02031C0800BF01C001BC01AD1481
:101CE00008000C303502B23003193402031C662E92
:101CF0000C30BF01C0013502E4300319340203186F
:101D000008006E2E4608103A0319A82EAD16BD0124
:101D1000BE01BF01C001AD14BC0164303C02031818
:101D2000A52E03103C0DAD268A1100268A15C7008A
:101D30008A1100268A15C8004202031DA12E4708F9
:101D40004102031CA52EBC0A8D2E3C08B1000800E0
:101D50003508C2003408C1000800123E84008630F5
:101D60000318013EFF000800BF0A0319C00A003033
:101D700040026434831607080F3930388700831215
:101D800003308511C701C70A19278A150330C70117
:101D9000C70A19278A154808E5004708E400851591
:101DA000831607080F399038870083120F30851586
:101DB0006502FA3003196402031CE22EFF30E400CE
:101DC000E500142F003065021E3003196402031869
:101DD000EC2EE401E501142F1030E201E300640869
:101DE0006202D3006508031C650A6302D400D501B2
:101DF000D6016408C7006508C8001230C901CA01CD
:101E0000CE01CD01CC005C30CB0083278A154A0877
:101E1000DA004908D9004808D8004708D700B62793
:101E20005408E5005308E4006508E1006408E00098
:101E30000800CB001030CF01D000E030D101D2013A
:101E4000CC01CD01CE0199054B089904981598193C
:101E5000272F1708D300F030D401D30ED40ED405A9
:101E600053080F39D404F030D305180E0F39D304BA
:101E700050085402031D3E2F4F0853020318442FED
:101E80005408D0005308CF0052085402031D4A2FB3
:101E900051085302031C502F5408D2005308D1009C
:101EA0005308CC070318CD0A5408CD074708031977
:101EB0005E2F0630CE0A4E02031C262F4708031958
:101EC0007E2F51084F07C90052080318520A5007C5
:101ED000CA00C909CA09C90A0319CA0A4908D300AC
:101EE0004A08D4004C08D3070318D40A4D08D40775
:101EF0000310D40CD30C0310D40CD30C5408C8001A
:101F00005308C7000800CF01D001D101D201471CFE
:101F10009D2F4B08CF074C0803110318013E031DEA
:101F2000D0074D0803110318013E031DD1074E08C9
:101F300003110318013E031DD2070310CB0DCC0D76
:101F4000CD0DCE0D0310CA0CC90CC80CC70C4A0825
:101F5000490448044704031D872F5208CA0051084A
:101F6000C9005008C8004F08C7000800DB01DC01A9
:101F7000DD01DE0156085504540453040319F52FFE
:101F8000DF01DF0AD61BCA2F0310D30DD40DD50DE8
:101F9000D60DC12F0310DB0DDC0DDD0DDE0D560857
:101FA0005A02031DDD2F55085902031DDD2F540869
:101FB0005802031DDD2F53085702031CEF2F53084F
:101FC000D7025408031C540FD8025508031C550FA0
:101FD000D9025608031C560FDA025B140310D60C04
:101FE000D50CD40CD30CDF0BCA2F5E08D6005D08CD
:101FF000D5005C08D4005B08D3000800003400342E
:00000001FF
