:040000008A11112828
:10000800FE00030EFA000408FB000A08FC00831235
:1000180003137F08FD008A110D2C8A11D42D0313B8
:10002800061D1928831621141B28831621108312F4
:10003800851B21288316A11423288316A1102108C3
:10004800220603195D280230A30A2302031C5E2836
:10005800A21CA11C39283230A50AA6002414A70125
:10006800A8018A1564238A113D28A218A1183D28E1
:1000780024108316221C211C4928241A5328A4164C
:1000880083122C148316A4135328221821185328DA
:10009800A41E5328A2238A112C108316A41283129B
:1000A8000317DC01DD0183160313A3012108A20055
:1000B8005E28A301260803196328A60384282408B8
:1000C8003139031D82288312AB1FAC1B822883168B
:1000D800250B8228073083124402031C7728440822
:1000E800113A031D822884238A111130AA11A5010F
:1000F800A60107248A118D238A11C3018316A5013D
:10010800241CB3280030280296300319270203184C
:100118009528A70A0319A80A83120317DC01DD0131
:10012800B3282410A501A2238A112C1084238A1134
:100138000030AB1FA2280C30AB13A4280B30AB1730
:10014800C5001930C6000A30C70041308D238A1116
:10015800003019238A11C6238A1181238A11831634
:100168000313A508031DBC28210805390319080035
:1001780083120317DC01DD0108002C1C4629073017
:100188002C104402031CD02844080A3A0319D0282A
:100198004408113A031D0800AB1FAC1B08003A08BD
:1001A800031DAC19D828EB288423003007308A15A2
:1001B8000A248A118D238A11003019238A11BA0161
:1001C800440B08000030AA11A501A601812B851D4A
:1001D800FB2884238A1100300D30C0238A118D2317
:1001E8008A11003019238A11C6238A11812B8A1596
:1001F800BA268A115F08B9005E08B80001303902D2
:100208007C30031938020318142984238A110E300C
:1002180007248A118D23C301AA11A501A60108008C
:100228005A300317E400A530E50003130E100D142F
:10023800831607080F3930388700A0018312031787
:10024800DA01DB0103133308B7003208B600AB1C30
:1002580032293308C0003208BF00AB10C83005127D
:10026800A900A8003230A701AE01B401B501AC1253
:10027800AC100B120317DE01DF01D9000B160313B4
:10028800AC170800AC1F08002C1F4D29A2238A11A7
:1002980009290A302E02031C6429A2238A11842307
:1002A800003007308A150A248A118D238A110030FC
:1002B80019238A110030BA01AA11A501A601812BC0
:1002C800033003175F02E83003195E02031C80291C
:1002D80083160313A41B8029A2238A1184238A115D
:1002E80000300F30C0238A118D238A110030192362
:1002F8008A11C6238A11812B0530831203175F02E6
:10030800DC3003195E02031C9F2983160313A41F04
:100318009F29A2238A1184238A1100301930C5012C
:10032800C6004130C7018D238A11003019238A1174
:10033800C6238A11812B83120313AC1C08000330D7
:10034800C5018A1519278A114608B9004508B80059
:10035800AC1C0800AC1E312A0E303902D830031903
:1003680038020318BA292C170516080006302E3E45
:10037800840083130008840A00040319080038085D
:10038800C5003908C600C701C8013408C9003508C6
:10039800CA00CB01CC018A1583278A114508E400DD
:1003A8004608E5004708E6004808E7000C30031057
:1003B800E70CE60CE50CE40CFF3E031DDB296508A1
:1003C800E9006408E800310B062A0F303702D23002
:1003D800031936026808D1006908D200031CFD29F8
:1003E8000930D301D401D801D7004E30D600D0301F
:1003F800122A0A30D301D401D801D7003930D600E7
:100408003030122A6808D1006908D2000830D301B8
:10041800D401D801D7006430D6007030D5008A15D1
:10042800B6278A115208E9005108E800003069022D
:10043800C83003196802031C242AC830A900080020
:10044800003069023C300319680203182E2A3C3038
:10045800A90008006808A90008000E303902E23037
:1004680003193802031CB729AC16B0012A102A1345
:100478002A11AA14AA1B452AA101AA11A501A6019D
:10048800AA1719302A14AA15C501C50AC600C8300A
:10049800C70041308D233A08AF000230C30008007E
:1004A80044080319080042080319F02AC52A09302C
:1004B80042020318EE2A0730FF3019238A11FF3051
:1004C80081238A11EE2A0E3019238A11EE2A3A085E
:1004D800AF000130A40624080C3819238A114218E9
:1004E800EE2A1430C200EE2A421C7F2A003008305F
:1004F80019238A11EE2A01300C30AF0119238A1111
:10050800EE2A421C892A00308A2A31081030192321
:100518008A11EE2A421CA42A44080E3A031D9C2A7A
:1005280007300E3019238A11FF3081238A11EE2AF1
:100538000030003019238A11003081238A11EE2AF5
:1005480007300E3019238A11FF3081238A11EE2AD1
:10055800421CB02A0030EE2A3108EE2A31080E304B
:1005680019238A11FF3081238A11EE2A0E301923AC
:100578008A11EE2A0D3019238A11FF3081238A113E
:10058800EE2A4408013A0319672A053A03196B2A27
:10059800013A0319BE2A033A0319BA2A013A031980
:1005A800782A0D3A0319AC2A013A0319AC2A073AFA
:1005B8000319AC2A013A03198E2A033A03198E2A21
:1005C800013A0319852A1F3A03195B2A013A0319CC
:1005D800B22AEE2AC20308000E3044020318F82A91
:1005E800073044020318FB2A003019238A114408F3
:1005F8000E3A0319072B4408103A0319072B44082D
:10060800113A031D0B2B0030003081238A1144035B
:100618000319122B4408053A031D172B0030AA11A1
:10062800A501A6018123C4010800C800C501C701AE
:100638002A12652B481D352B2F08C7006430470246
:10064800031C292B0630C504352BC6010A30470286
:10065800031C352B0A30C7020A30C60A4602031C9F
:100668002A2BC81945144818C517C81C7C2B0030FC
:1006780003176302031D4A2B00306202031D4A2B35
:10068800D6306102031D4A2BD830600203184E2B66
:1006980070305F2B00306302031D5C2B0130620257
:1006A800031D5C2B8E306102031D5C2B70306002D1
:1006B8000318622B30300313C5047C2B0313451633
:1006C8007C2B4808003A03197C2B0F3A03197C2B22
:1006D8001F3A03197C2B503A03197C2BC03A031993
:1006E8007C2B403A03197C2B3F3A03197C2B1E2B99
:1006F800A301AA122A16080008002A122A160800BE
:1007080064302A102A13AA132A11AA14A200A101DC
:100718000800C800033E8400450883138000480889
:10072800013E84004708800048088400460880008D
:100738004808023E84004608800008008312AC1F67
:100748000800AC130D102C1305160317E401E5017E
:100758004F3083160313A40507080F399038870014
:100768008312083085152A102A13AA102A15AA17E9
:100778002A14C200C3010800C5001930C60004309D
:10078800C70041340030AA11A501A60108002B1D9D
:10079800F52B051BF22B83160330A00A2002031C3D
:1007A800080083122B11AB118316A00183120430A9
:1007B8000317DC01DD01031344020318E72B07309C
:1007C800440203180800063007248A118D238A1171
:1007D8000030C301AA11A501A601812B8316A0012F
:1007E8000800051FF22B83160330A00A2002031C01
:1007F800080083122B15AB118316A001831203176F
:10080800DA01DB010800C5001930C6000830C7004E
:1008180041340E1E172CAC1B2C1B152C0516051568
:100828002C170E12472C0E1C242CAC1B1D2C0D1C37
:10083800222C2C1B222C051605152C170E10472CC4
:100848000C1E382C64300317D90A5902031C2F2CAC
:10085800D90103132B176F248A11AC1B2C1B362CC0
:1008680052248A110C12472C0C1C3C2C0C10472CBF
:100878008C1C402C8C10472C0C1D442C0C11472C24
:100888008C1D472C8C117D08FF007C088A007B0892
:1008980084007A0E8300FE0E7E0E0900C8302702FF
:1008A800031C5E2CA7012908A800280803196C2C32
:1008B80005126D2C270803196D2C28082702031828
:1008C800672CAC146D2C28082706031D6D2CAC1062
:1008D8000516A70A0800F801F901F90179086D253C
:1008E8008A110830F90A7902031C722CF9010630C2
:1008F800F000831203132D08D8248A11C4258A1105
:10090800CE258A1100268A1100380319D02C06300A
:10091800F0002D08D8248A11C4258A11CE258A1101
:1009280000268A11FF3EF7000630F0002D08D82473
:100938008A11C425F50074080318013EF600013039
:100948007507840076080318760AFF008A110026C6
:100958008A11FF3EF8007708F300A0300310F30D6A
:100968000310F30D0310F30D7307F40078087407F0
:10097800F5008400831780080319CB2CF001770851
:10098800E6248A11F001F00A7808E6248A11033077
:10099800F90A7902031C7B2C83120313AD0A2D0874
:1009A800123A0319AD010800F200F101700872183B
:1009B800F1070310F00D0310F20CF208031DDA2CF6
:1009C80071080800F100602D831603130D080F3914
:1009D80060388D0070080319F42C831286150800FE
:1009E800831286110800831603131008F03906389D
:1009F800900070080319032D83120714080083124E
:100A0800071008008316031310080F396038900088
:100A180070080319122D8312871408008312871097
:100A28000800831603130E08F03906388E00700884
:100A38000319212D831206160800831206120800D6
:100A4800831603130E080F3960388E0070080319D7
:100A5800302D83128616080083128612080083162A
:100A680003130F08F03906388F00700803193F2D5B
:100A7800831206170800831206130800831603134F
:100A88000F080F3960388F00700803194E2D831234
:100A980086170800831286130800831603130C08B0
:100AA800F03906388C00700803195D2D831206147E
:100AB8000800831206100800710884000830040238
:100AC8000318080005308A000310040DEA3E82006E
:100AD8000800F000B72D83120313861583160D083E
:100AE8000F3910388D00080083120313071483167A
:100AF8001008F03901389000080083120313871496
:100B0800831610080F391038900008008312031359
:100B1800061683160E08F03901388E000800831275
:100B28000313861683160E080F3910388E00080036
:100B380083120313061783160F08F03901388F0044
:100B4800080083120313861783160F080F3910380D
:100B58008F00080083120313061483160C08F0395B
:100B680001388C000800700884000830040203185B
:100B7800080008308A000310040D003E82000800B7
:100B8800DC3EF30086300318013EF4000310790DB3
:100B980073070800840074080318740AFF0008002B
:100BA80020308313840045308A11F5278A11A0303C
:100BB8008400B1308A11F5278A11A0308317840088
:100BC800E0308A11F52783018A15CA2C8A11E82C8E
:100BD8008A11F72C8A11062D8A11152D8A11242DB8
:0C0BE8008A11332D8A11422D8A11512DE3
:100C0000FF1B0A2E83137F1883170008840A031919
:100C1000FF0A08007F087F398A000408840A031944
:100C2000FF0A8200E4340C34F2340C3400340D3406
:100C30000E340D341C340D342A340D3438340D3454
:100C400046340D3454340D3462340D3470340D3464
:100C50007A340D3484340D348E340D3498340D349C
:100C6000A2340D34AC340D34B6340D34C0340D34EC
:100C7000CA340D34D4340D34DE340D34E8340D343C
:100C8000F2340D34FC340D3406340E3410340E348A
:100C90001A340E3424340E342E340E3438340E34D8
:100CA0003C340E3440340E3444340E3448340E3464
:100CB0004C340E3450340E3454340E3458340E3414
:100CC0005C340E3460340E3464340E3468340E34C4
:100CD0006C340E3470340E3474340E3478340E3474
:100CE0007C340E3480340E3484340E3488340E3424
:100CF0008C340E3490340E3494340E3498340E34D4
:100D00009C340E34A0340E34A4340E34A8340E3483
:100D1000AC340E34B0340E34B4340E34B8340E3433
:100D2000BC340E34C0340E34C4340E34C8340E34E3
:100D3000CC340E34D0340E34D4340E34D8340E3493
:100D4000E2340E34EC340E34F6340E3400340F3406
:100D50000A340F3414340F341E340F3428340F3453
:100D600032340F343C340F3446340F3450340F34A3
:100D70005A340F3464340F346E340F3478340F34F3
:100D800082340F348C340F3496340F34A0340F3443
:100D9000A5340F34AA340F34AF340F34B4340F34C5
:100DA000B9340F34BE340F34C3340F34C8340F3465
:100DB000CD340F342C341034013402340134033474
:100DC0000134043401340534013406340134073469
:100DD000023401340234033402340434023405345E
:100DE0000234063402340734033401340334023449
:100DF0000334043403340534033406340334073431
:100E00000434013404340234043403340434053427
:100E10000434063404340734053401340534023410
:100E200005340334053404340534063405340734FA
:100E300006340134063402340634033406340434F0
:100E400006340534063407340734013407340234D9
:100E500007340334073404340734053407340634C4
:100E600008340134083402340834033408340434B8
:100E700008340534083406340134083402340834A4
:100E800000340034083407340034003400340034B3
:100E90003F3406345B344F3466346D347D3407346C
:100EA0007F346F3477347C343A345E34793471343F
:100EB0000034383476345C34CE01C81F6C2FC50939
:100EC000C609C709C809C50A0319C60A0319C70A0A
:100ED0000319C80ACE01CE0ACC1F7B2FC909CA0943
:100EE000CB09CC09C90A0319CA0A0319CB0A031989
:100EF000CC0A0130CE06CF01D001D101D201480881
:100F00004704460445040319BA2FCD01CD0AC81B76
:100F10008F2F0310C50DC60DC70DC80D862F0310EA
:100F2000CF0DD00DD10DD20D48084C02031DA22FBC
:100F300047084B02031DA22F46084A02031DA22F99
:100F400045084902031CB42F4508C9024608031C82
:100F5000460FCA024708031C470FCB024808031C70
:100F6000480FCC024F140310C80CC70CC60CC50C9C
:100F7000CD0B8F2F4E080319C82FCF09D009D109E7
:100F8000D209CF0A0319D00A0319D10A0319D20AC8
:100F90005208C8005108C7005008C6004F08C500D5
:100FA0000800203083138400803004020318DC2FF3
:100FB00003138001840AD42FA0308400F03004028F
:100FC0000318E62F03138001840ADE2F20308317D5
:100FD0008400603004020318F12F03138001840A97
:100FE000E92F831383120313080064008001840A2D
:0A0FF0000406031900340406F62F6E
:101000008A116F2D8A11782D8A11812D8A118A2DCE
:101010008A11932D8A119C2D8A11A52D8A11AE2D2E
:10164C00AA1D0800260803192D2BA60308000A3032
:10165C00A600322BA5014C2B2508013A03194C2B63
:10166C00033A03194C2B013A03194C2B073A031973
:10167C004C2B013A03194C2B033A03194C2B013A0E
:10168C0003194C2B0F3A03194C2B302BAA1BAA1CF9
:10169C00552B0830250203180800A50A0800AA1BC0
:1016AC002A1D5C2B2508031DA50308002B1D080013
:1016BC0008302502031C532BA50108006D2BB1012A
:1016CC00B10A792B8030B100792BB101792B8312BF
:1016DC003108003A0319652B013A0319682B813A3A
:1016EC0003196B2B792B0730AB144402031C862B8C
:1016FC0044080A3A0319862B4408113A031D0800C2
:10170C008A1184238A1500300A30C5001930C600AE
:10171C000630C70041308A118D238A152B1D9A2B58
:10172C004408113A031D080000308A1119238A1548
:10173C008A11C6238A11812B831203132B1DF72BBD
:10174C00C408031DB12B04300A248A118D238A1579
:10175C00A401C301AA15AB19DB2B0F3033026E3079
:10176C0003193202031CD72B103033027C300319BF
:10177C003202031C051BC62B64303A02031CD72B08
:10178C00003003175B02143003195A020318D22BD2
:10179C00DA0A0319DB0A0800DA01DB010313AB15C3
:1017AC0008000317DA01DB0108004408043A031DA2
:1017BC0008003A08643A031D08000530C5001930CA
:1017CC00C6002830C70041308A118D233A08AF007B
:1017DC00C3010317DA01DB010313AA11A501A6014A
:1017EC000800C40803192A180800013003175D0209
:1017FC002C3003195C020318072CDC0A0319DD0AD0
:10180C00080003132B100800C5001930C600143053
:10181C00C7004134C4080319AA1E0800AB1E0800F7
:10182C0040248A1502300317DC00DD0103175D0824
:10183C005C04031303192F2C2B1F1C2C2B1364007B
:10184C00013083120317DC020030031CDD03DD02C0
:10185C001C2C2B1408000F08FC3903388F005A2459
:10186C008A15831203138F115A248A1583120313BA
:10187C000F155A2C2B1A2B12051F051F08001117B8
:10188C00141715166B248A158B018D010F165A240B
:10189C008A156300831203130F125A248A1592249B
:1018AC008A156B248A15AD2C000000000000000086
:1018BC00000000000000000000000000000000001C
:1018CC0000000000000000000800E8308312031341
:1018DC0085008930831688003630870086001130E9
:1018EC008500043083128600663083168F008E00CC
:1018FC00F0308D0066308C008312870183169000C7
:10190C00D830831203178505F8300313980505307A
:10191C0098043F30990508008312F03003130D1022
:10192C000E10960503309604161796161616F330FD
:10193C00831681050C30810464008B118312FC30FA
:10194C0003138C1183168105033081040800831264
:10195C0011170B120C121112F030910591149C30CE
:10196C00810090001417F0308B128C129405053006
:10197C0094048330920093001516FC300B130C1357
:10198C0095050B161113080064008B0183120313C9
:10199C008D018A1531248A158A156B248A158A15AE
:1019AC0092248A158A15AD248A1503176508A53A61
:1019BC005A3003196406031D072D0313AC172C10A2
:1019CC008A11A2238A158A1184238A150E30C50028
:1019DC001930C6000830C70041308A118D238A1592
:1019EC00051B2B15061DFC2C831622148316A40133
:1019FC00A50183122B120317DC01DD0103132B1439
:101A0C00252D8A11D1278A1560300313B101B10A33
:101A1C00840083178001840A8001840A8001840A6F
:101A2C0080018A1184238A151030C5001930C60034
:101A3C001030C70041308A118D238A152B162B1FAD
:101A4C009C2D2B13640083120E300313C501C50AA1
:101A5C008A1519278A154608B3004508B200C50037
:101A6C003308C6004B30C701C801CC01CB00CA01FA
:101A7C00C9018A115C278A154608B3004508B200D3
:101A8C008A15A6258A15831203132B1A8D2DAC1FCC
:101A9C00842D0A303302F030031932020318582D0A
:101AAC00AE0A592DAE01EA3003175F0260300319FC
:101ABC005E0203188A2DDE0A0319DF0A00305F026A
:101ACC00023003195E02031C722D0313AC1C722D21
:101ADC003308B5003208B4000317600A0319610A11
:101AEC000319620A0319630A03198A2DE00A031900
:101AFC00E10A0319E20A0319E30A8A2D8A11CB239E
:101B0C008A158A15A2238A158A1113208A15831225
:101B1C00031343080319942DC303992D4108C300E3
:101B2C008A1154228A158A1526238A152B1CA22D5C
:101B3C008A11C1208A15252D8A1510248A15252D68
:101B4C00AB1E822EAC1FAF2DBB01BC01BD01BE0173
:101B5C0008002B1D112E3208143EC5003308031843
:101B6C00013EC60040084602031DBE2D3F0845023B
:101B7C00031CAB18CC2DBB01BC01B4268A15031970
:101B8C003D02031CF02DBD01BE01F02DBD01BE01B7
:101B9C00AB14AB19EA2D0F303302B43003193202F7
:101BAC000318EA2D03103A0DAD268A1100268A156A
:101BBC00C5008A1100268A15C6003302031DE82DC4
:101BCC0045083202031CEE2DBB0A0319BC0AF02D8A
:101BDC00BB01BC010A303A02031CFC2D5A303A02FC
:101BEC000318FC2DB830C8000B30FF2DA030C800F6
:101BFC000F30C9003C02031D052E48083B02031C94
:101C0C0008006430BB01BC013A02031CBA0A3A0852
:101C1C00031DAC1108000230BB01BC013A02031CCD
:101C2C00712E03103A0DAD268A1100268A15C500B7
:101C3C008A1100268A15C6003302031D272E45087B
:101C4C00320203182D2EBD0A0319BE0A2F2EBD0118
:101C5C00BE0100303E02643003193D02031C080033
:101C6C00BD01BE013A08CA00CA080319502ECA03A6
:101C7C0003104A0DAD268A1100268A15C5008A115B
:101C8C0000268A15C6003302031D4E2E450832026B
:101C9C00031C3A2E4A081E3EC500003003180130C2
:101CAC00C600803AC70080304702031D5F2E3A08F9
:101CBC00450203180800831203134A08BA006F2E5A
:101CCC00B4268A1503193D02031C0800BD01BE0190
:101CDC00BA01AB1408000C303302B23003193202D3
:101CEC00031C662E0C30BD01BE013302E430031917
:101CFC003202031808006E2E4408103A0319A82E5D
:101D0C00AB16BB01BC01BD01BE01AB14BA01643002
:101D1C003A020318A52E03103A0DAD268A1100269F
:101D2C008A15C5008A1100268A15C6004002031DBB
:101D3C00A12E45083F02031CA52EBA0A8D2E3A0887
:101D4C00AF0008003308C0003208BF000800123E84
:101D5C00840086300318013EFF000800BD0A0319F9
:101D6C00BE0A00303E026434831607080F3930383F
:101D7C008700831203308511C501C50A19278A15FE
:101D8C000330C501C50A19278A154608E300450822
:101D9C00E2008515831607080F39903887008312E7
:101DAC000F3085156302FA3003196202031CE22E10
:101DBC00FF30E200E300142F003063021E300319E1
:101DCC0062020318EC2EE201E301142F1030E00143
:101DDC00E10062086002D1006308031C630A61021F
:101DEC00D200D301D4016208C5006308C6001230CA
:101DFC00C701C801CC01CB01CA005C30C9008327E4
:101E0C008A154808D8004708D7004608D600450868
:101E1C00D500B6275208E3005108E2006308DF0042
:101E2C006208DE000800C9001030CD01CE00E030A1
:101E3C00CF01D001CA01CB01CC0199054908990405
:101E4C0098159819272F1708D100F030D201D10E10
:101E5C00D20ED20551080F39D204F030D105180E2C
:101E6C000F39D1044E085202031D3E2F4D0851026A
:101E7C000318442F5208CE005108CD0050085202CE
:101E8C00031D4A2F4F085102031C502F5208D0003B
:101E9C005108CF005108CA070318CB0A5208CB07C8
:101EAC00450803195E2F0630CC0A4C02031C262F62
:101EBC00450803197E2F4F084D07C700500803181B
:101ECC00500A4E07C800C709C809C70A0319C80A2F
:101EDC004708D1004808D2004A08D1070318D20A93
:101EEC004B08D2070310D20CD10C0310D20CD10C1E
:101EFC005208C6005108C5000800CD01CE01CF0123
:101F0C00D001451C9D2F4908CD074A080311031821
:101F1C00013E031DCE074B0803110318013E031DA0
:101F2C00CF074C0803110318013E031DD007031003
:101F3C00C90DCA0DCB0DCC0D0310C80CC70CC60CAB
:101F4C00C50C4808470446044504031D872F500858
:101F5C00C8004F08C7004E08C6004D08C500080051
:101F6C00D901DA01DB01DC01540853045204510499
:101F7C000319F52FDD01DD0AD41BCA2F0310D10D77
:101F8C00D20DD30DD40DC12F0310D90DDA0DDB0DED
:101F9C00DC0D54085802031DDD2F53085702031D96
:101FAC00DD2F52085602031DDD2F51085502031C6C
:101FBC00EF2F5108D5025208031C520FD6025308BA
:101FCC00031C530FD7025408031C540FD802591486
:101FDC000310D40CD30CD20CD10CDD0BCA2F5C0823
:101FEC00D4005B08D3005A08D2005908D10008006D
:041FFC000034003479
:00000001FF
