:100000008A31112800000000FE00030EFA000408E7
:10000800FB000A08FC00833203337F08FD008A31B5
:10001000DE2B8A35102B0333063D19288336213415
:100018001B28833621308332853B21288336A1343F
:1000200023288336A1302108220603395D280219CE
:10002800A30A2302033C5E28A23CA13C39283219CA
:10003000A50AA6002434A701A8018A3564238A31C1
:100038003D28A238A1383D2824308336223C213C73
:100040004928243A5328A43683322E348336A433E5
:100048005328223821385328A43E5328C0238A3104
:100050002E308336A43283320337DC01DD01833650
:100058000333A3012108A2005E28A301260803395F
:100060006328A60384282408311B033D8228833299
:10006800AD3FAE3B82288336250B822807198332A1
:100070004602033C77284608111D033D822897233A
:100078001119AC31A501A6018A31EC258A31A023DA
:100080008A31C5018336A501243CB3280019280212
:1000880096190339270203389528A70A0339A80ABD
:1000900083320337DC01DD01B3282430A501C023FE
:100098008A312E3097238A310019AD3FA2280C19D6
:1000A000AD33A4280B19AD37C7001919C8000A19B8
:1000A800C9004319A0238A3100192C238A31BB23A4
:1000B0008A3194238A3183360333A508033DBC2853
:1000B8002108051B0339400083320337DC01DD01C9
:1000C00040002E3C5C2907192E304602033CD02804
:1000C80046080A1D0339D0284608111D033D400083
:1000D000AD3FAE3B40003C08033DAE39D828EB288D
:1000D8009723001907198A350A248A31A0238A31FF
:1000E00000192C238A31BC01460B40000019AC31A9
:1000E800A501A601942B853DFB2897238A31001989
:1000F0000D19B5238A31A0238A3100192C238A31A6
:1000F800BB238A31942B8A35BA268A316108BB0022
:100100006008BA0001193B027C1903393A0203382E
:10010800142997230E198A31EC258A31A023C501B9
:10011000AC31A501A60140005A190337E400A51926
:10011800E50003330E300D34833607080F1B301A01
:100120008700A00183320337DA01DB01033335088E
:10012800B9003408B800AD3C32293508C20034089B
:10013000C100AD303308801D033D3E29C81905328A
:100138000531A900A800AB00AA004829330B4129C2
:100140003629C81905350532A900A800AB01AA0156
:10014800C8190532A900A8003219A701B001B601E3
:10015000B701AE32AE300B320337DE01DF01D9001A
:100158000B360333AE374000AE3F40002E3F6329D5
:10016000C0238A3109290A193002033C7A29C023A5
:100168008A319723001907198A350A248A31A0236E
:100170008A3100192C238A310019BC01AC31A50148
:10017800A601942B031903375F02E81903395E02BD
:10018000033C962983360333A43B9629C0238A3146
:1001880097238A3100190F19B5238A31A0238A31A0
:1001900000192C238A31BB238A31942B0519833211
:1001980003375F02DC1903395E02033CB529833655
:1001A0000333A43FB529C0238A3197238A3100192C
:1001A8001919C701C8004319C901A0238A310019C8
:1001B0002C238A31BB238A31942B83320333AE3C08
:1001B80040000319C7018A3519278A314808BB004E
:1001C0004708BA00AE3C4000AE3E442A0E193B023E
:1001C800D81903393A020338D0292E3705364000AA
:1001D0000619301C840083330008840A00040339A4
:1001D80040003A08C7003B08C800C901CA013608F0
:1001E000CB003708CC00CD01CE018A3583278A3178
:1001E8004708E6004808E7004908E8004A08E90027
:1001F0000C190330E90CE80CE70CE60CFF1C033D7E
:1001F800F1296708EB006608EA00222A6A08D3009A
:100200006B08D4000919D501D601DA01D900C41947
:10020800D800D701182A6A08D3006B08D400081947
:10021000D501D601DA01D9003D19D8006019D700FF
:100218008A35B6278A315408EB005308EA002D2A9C
:10022000B3012D2A3308001D0339FE29011D0339AE
:100228000B2A811D0339202A2D2A00196B02C819AF
:1002300003396A02033C372AC819A9004000001993
:100238006B023C1903396A020338412A3C19A900A8
:1002400040006A08A90040000E193B02E219033978
:100248003A02033CCD29AE36B2012C302C332C3186
:10025000AC34AC3B582AA101AC31A501A601AC37A6
:1002580019192C34AC35C701C70AC800C819C90018
:100260004319A0233C08B1000219C500400046080C
:100268000339400044080339032BD82A09194402EA
:100270000338012B0719FF192C238A31FF19942306
:100278008A31012B0E192C238A31012B3C08B1003D
:100280000119A40624080C1A2C238A314438012BA6
:100288001419C400012B443C922A001908192C2384
:100290008A31012B01190C19B1012C238A31012B50
:10029800443C9C2A00199D2A330810192C238A31C2
:1002A000012B443CB72A46080E1D033DAF2A07190F
:1002A8000E192C238A31FF1994238A31012B001946
:1002B00000192C238A31001994238A31012B071944
:1002B8000E192C238A31FF1994238A31012B443CCF
:1002C000C32A0019012B3308012B33080E192C23E4
:1002C8008A31FF1994238A31012B0E192C238A3184
:1002D000012B0D192C238A31FF1994238A31012B0C
:1002D8004608011D03397A2A051D03397E2A011DA6
:1002E0000339D12A031D0339CD2A011D03398B2A75
:1002E8000D1D0339BF2A011D0339BF2A071D033914
:1002F000BF2A011D0339A12A031D0339A12A011DAB
:1002F8000339982A1F1D03396E2A011D0339C52A9F
:10030000012BC40340000E19460203380B2B0719BA
:10030800460203380E2B00192C238A3146080E1D8D
:1003100003391A2B4608101D03391A2B4608111DE4
:10031800033D1E2B0019001994238A314603033923
:10032000252B4608051D033D2A2B0019AC31A501DC
:10032800A6019423C6014000CA00C701C9012C32A6
:10033000782B4A3D482B3108C90064194902033C17
:100338003C2B0619C704482BC8010A194902033C7B
:10034000482B0A19C9020A19C80A4802033C3D2B66
:10034800CA3947344A38C737CA3C8F2B0019033794
:100350006302033D5D2B00196202033D5D2BD6193C
:100358006102033D5D2BD81960020338612B7019C7
:10036000722B00196302033D6F2B01196202033DDA
:100368006F2B8E196102033D6F2B701960020338E1
:10037000752B30190333C7048F2B033347368F2B6C
:100378004A08001D03398F2B0F1D03398F2B1F1DB2
:1003800003398F2B501D03398F2BC01D03398F2B41
:10038800401D03398F2B3F1D03398F2B312BA301C0
:10039000AC322C36400040002C322C364000641920
:100398002C302C33AC332C31AC34A200A1014000FA
:1003A000CA00031C84004708833380004A08011CEC
:1003A8008400490880004A088400480880004A08F8
:1003B000021C8400480880004000C7001919C800CA
:1003B8000419C90043180019AC31A501A601400071
:1003C0008332AE3F4000AE330D302E330536033757
:1003C800E401E5014F1983360333A40507080F1B21
:1003D000901A87008332081985352C302C33AC30C5
:1003D8002C35AC372C34C400C50140000E3EE82B48
:1003E000AE3B2E3BE62B053605352E370E32182C4C
:1003E8000E3CF52BAE3BEE2B0D3CF32B2E3BF32BAB
:1003F000053605352E370E30182C0C3E092C6419A5
:1003F8000337D90A5902033C002CD90103332D379E
:100400004B248A31AE3B2E3B072C23248A310C32FD
:10040800182C0C3C0D2C0C30182C8C3C112C8C30DE
:10041000182C0C3D152C0C31182C8C3D182C8C31C3
:100418007D08FF007C088A007B0884007A0E830030
:10042000FE0E7E0E6000C8192702033C392CA7017E
:100428002908A8002B08AA0028080339312C05320E
:10043000322C05362A080339372C0531452C053571
:10043800452C27080339452C28082706033D412C5D
:1004400005362A0827060339372C2708051D0339E6
:100448002E36A70A4000F801F901F9017908492573
:100450008A310819F90A7902033C4E2CF901061970
:10045800F000833203332F08B4248A31A0258A316F
:10046000AA258A3100268A31001A0339AC2C0619D4
:10046800F0002F08B4248A31A0258A31AA258A31C0
:1004700000268A31FF1CF7000619F0002F08B4246B
:100478008A31A025F50074080338011CF60001191B
:100480007507840076080338760AFF008A31002653
:100488008A31FF1CF8007708F300A0190330F30D38
:100490000330F30D0330F30D7307F400780874078D
:10049800F5008400833780080339A72CF00177081A
:1004A000C2248A31F001F00A7808C2248A31031983
:1004A800F90A7902033C572C83320333AF0A2F0829
:1004B000121D0339AF014000F200F10170087238DB
:1004B800F1070330F00D0330F20CF208033DB62CBF
:1004C00071084000F1003C2D833603330D080F1BEB
:1004C800601A8D0070080339D02C833286354000BD
:1004D000833286314000833603331008F01B061A3E
:1004D800900070080339DF2C8332073440008332E0
:1004E000073040008336033310080F1B601A90005A
:1004E80070080339EE2C833287344000833287301A
:1004F0004000833603330E08F01B061A8E00700886
:1004F8000339FD2C83320636400083320632400031
:10050000833603330E080F1B601A8E007008033900
:100508000C2D833286364000833286324000833693
:1005100003330F08F01B061A8F00700803391B2DD8
:100518008332063740008332063340008336033384
:100520000F080F1B601A8F00700803392A2D8332C1
:1005280086374000833286334000833603330C0815
:10053000F01B061A8C0070080339392D83320634FB
:100538004000833206304000710884000819040224
:100540000338400008198A000330040D001C8200A3
:100548004000F000932D83320333863583360D083F
:100550000F1B101A8D00400083320333073483369B
:100558001008F01B011A90004000833203338734DF
:10056000833610080F1B101A9000400083320333AB
:10056800063683360E08F01B011A8E0040008332CF
:100570000333863683360E080F1B101A8E00400098
:1005780083320333063783360F08F01B011A8F00C6
:10058000400083320333863783360F080F1B101A5F
:100588008F00400083320333063483360C08F01B97
:10059000011A8C0040007008840008190402033816
:10059800400008198A000330040D101C8200400036
:1005A000DC1CF30086190338011CF4000330790DBC
:1005A80073074000840074080338740AFF00400091
:1005B0002D3DDA2D053BD72D83360319A00A2002E5
:1005B800033C400083322D31AD318336A0018332B4
:1005C00004190337DC01DD01033346020338CC2D67
:1005C80007194602033840000619EC258A31A02392
:1005D0000019C501AC31A501A6018A31942B8336DF
:1005D800A0014000053FD72D83360319A00A200249
:1005E000033C400083322D35AD318336A001833288
:1005E8000337DA01DB014000C7001919C8000819F0
:1005F000C9004318000000000000000000000000D7
:1005F80000000000000000000000000000000000F3
:10060000FF3B0A2E83337F3883370008840A03397F
:10060800FF0A40007F087F1B8A000408840A033918
:10061000FF0A8200E4180C18F2180C1800180D18C4
:100618000E180D181C180D182A180D1838180D1852
:1006200046180D1854180D1862180D1870180D186A
:100628007A180D1884180D188E180D1898180D18AA
:10063000A2180D18AC180D18B6180D18C0180D1802
:10063800CA180D18D4180D18DE180D18E8180D185A
:10064000F2180D18FC180D1806180E1810180E18B0
:100648001A180E1824180E182E180E1838180E1806
:100650003C180E1840180E1844180E1848180E189A
:100658004C180E1850180E1854180E1858180E1852
:100660005C180E1860180E1864180E1868180E180A
:100668006C180E1870180E1874180E1878180E18C2
:100670007C180E1880180E1884180E1888180E187A
:100678008C180E1890180E1894180E1898180E1832
:100680009C180E18A0180E18A4180E18A8180E18EA
:10068800AC180E18B0180E18B4180E18B8180E18A2
:10069000BC180E18C0180E18C4180E18C8180E185A
:10069800CC180E18D0180E18D4180E18D8180E1812
:1006A000E2180E18EC180E18F6180E1800180F188D
:1006A8000A180F1814180F181E180F1828180F18E2
:1006B00032180F183C180F1846180F1850180F183A
:1006B8005A180F1864180F186E180F1878180F1892
:1006C00082180F188C180F1896180F18A0180F18EA
:1006C800A5180F18AA180F18AF180F18B4180F1874
:1006D000B9180F18BE180F18C3180F18C8180F181C
:1006D800CD180F182C181018011802180118031833
:1006E0000118041801180518011806180118071830
:1006E800021801180218031802180418021805182D
:1006F0000218061802180718031801180318021820
:1006F8000318041803180518031806180318071810
:10070000041801180418021804180318041805180E
:1007080004180618041807180518011805180218FF
:1007100005180318051804180518061805180718F1
:1007180006180118061802180618031806180418EF
:1007200006180518061807180718011807180218E0
:1007280007180318071804180718051807180618D3
:1007300008180118081802180818031808180418CF
:1007380008180518081806180118081802180818C3
:1007400000180018081807180018001800180018DA
:100748003F1806185B184F1866186D187D1807189B
:100750007F186F1877187C183A185E187918711876
:100758000018381876185C18D001CA3F6C2FC709E2
:10076000C809C909CA09C70A0339C80A0339C90A25
:100768000339CA0AD001D00ACE3F7B2FCB09CC0966
:10077000CD09CE09CB0A0339CC0A0339CD0A033996
:10077800CE0A0119D006D101D201D301D4014A0809
:100780004904480447040339BA2FCF01CF0ACA3BB2
:100788008F2F0330C70DC80DC90DCA0D862F033032
:10079000D10DD20DD30DD40D4A084E02033DA22F28
:1007980049084D02033DA22F48084C02033DA22FF1
:1007A00047084B02033CB42F4708CB024808033CE0
:1007A800480FCC024908033C490FCD024A08033CD4
:1007B0004A0FCE0251340330CA0CC90CC80CC70C06
:1007B800CF0B8F2F50080339C82FD109D209D3097D
:1007C000D409D10A0339D20A0339D30A0339D40A26
:1007C8005408CA005308C9005208C8005108C70095
:1007D0004000201983338400801904020338DC2F81
:1007D80003338001840AD42FA0198400F01904027D
:1007E0000338E62F03338001840ADE2F2019833774
:1007E8008400601904020338F12F03338001840A5E
:1007F000E92F8333833203334000041E8001840ACF
:1007F8000406033900180406F62F00000000000064
:100800008A31C42C8A31D32C8A31E22C8A31F12CE2
:100808008A31002D8A310F2D8A311E2D8A312D2DE6
:100810008A314B2D8A31542D8A315D2D8A31662DD6
:100818008A316F2D8A31782D8A31812D8A318A2D3E
:1008200000000000000000000000000000000000C8
:1008280000000000000000000000000000000000C0
:1008300000000000000000000000000000000000B8
:1008380000000000000000000000000000000000B0
:100B100020198333840047198A31F5278A35A019B3
:100B18008400B1198A31F5278A35A01983378400F2
:100B2000E0198A31F52783018A35CA2CAC3D400093
:100B2800260803392D2BA60340000A19A600322BEC
:100B3000A5014C2B2508011D03394C2B031D03393E
:100B38004C2B011D03394C2B071D03394C2B011D70
:100B400003394C2B031D03394C2B011D03394C2B4E
:100B48000F1D03394C2B302BAC3BAC3C552B0819F3
:100B5000250203384000A50A4000AC3B2C3D5C2B2D
:100B58002508033DA50340002D3D40000819250246
:100B6000033C532BA50140006D2BB301B30A792B35
:100B68008019B300792BB301792B83323308001D28
:100B70000339652B011D0339682B811D03396B2B4C
:100B7800792B0719AD344602033C862B46080A1D1B
:100B80000339862B4608111D033D40008A31972307
:100B88008A3500190A19C7001919C8000619C900B9
:100B900043198A31A0238A352D3D9A2B4608111D11
:100B9800033D400000198A312C238A358A31BB2352
:100BA0008A31942B833203332D3DF72BC608033D46
:100BA800B12B04190A248A31A0238A35A401C5016E
:100BB000AC35AD39DB2B0F1935026E190339340210
:100BB800033CD72B101935027C1903393402033C46
:100BC000053BC62B64193C02033CD72B00190337A5
:100BC8005B02141903395A020338D22BDA0A0339A3
:100BD000DB0A4000DA01DB010333AD3540000337A7
:100BD800DA01DB0140004608041D033D40003C08E3
:100BE000641D033D40000519C7001919C8002819E4
:100BE800C90043198A31A0233C08B100C501033765
:100BF000DA01DB010333AC31A501A6014000C608D0
:100BF80003392C384000011903375D022C190339D9
:100C00005C020338072CDC0A0339DD0A4000033399
:100C08002D304000C7001919C8001419C90043182D
:100C1000C6080339AC3E4000AD3E400040248A3552
:100C180002190337DC00DD0103375D085C04033388
:100C200003392F2C2D3F1C2C2D33041E0119833228
:100C28000337DC020019033CDD03DD021C2C2D34E4
:100C300040000F08FC1B031A8F005A248A358332A8
:100C380003338F315A248A35833203330F355A2CC4
:100C40002D3A2D32053F053F400011371437153638
:100C48006B248A358B018D010F365A248A35031E91
:100C5000833203330F325A248A3592248A356B2427
:100C58008A35AD2C000000000000000000000000F4
:100C60000000000000000000000000000000000084
:100C6800000000004000E819833203338500891929
:100C7000833688003619870086001119850004190B
:100C780083328600661983368F008E00F0198D0046
:100C800066198C008332870183369000D81983322D
:100C880003378505F81903339805051998043F19A2
:100C9000990540008332F01903330D300E3096056C
:100C980003199604163796361636F31983368105E6
:100CA0000C198104041E8B318332FC1903338C31FF
:100CA80083368105031981044000833211370B32E2
:100CB0000C321132F019910591349C198100900089
:100CB8001437F0198B328C32940505199404831972
:100CC000920093001536FC190B330C3395050B3647
:100CC80011334000041E8B01833203338D018A35B2
:100CD00031248A358A356B248A358A3592248A35BF
:100CD8008A35AD248A3503376508A51D5A190339A5
:100CE0006406033D072D0333AE372E308A31C0230F
:100CE8008A358A3197238A350E19C7001919C80021
:100CF0000819C90043198A31A0238A35053B2D35CF
:100CF800063DFC2C833622348336A401A5018332B9
:100D00002D320337DC01DD0103332D34252D8A31EB
:100D0800D1278A3560190333B301B30A84008337C6
:100D10008001840A8001840A8001840A80018A316A
:100D180097238A351019C7001919C8001019C90076
:100D200043198A31A0238A352D362D3F9C2D2D3332
:100D2800041E83320E190333C701C70A8A351927EF
:100D30008A354808B5004708B400C7003508C80020
:100D38004B19C901CA01CE01CD00CC01CB018A31C2
:100D40005C278A354808B5004708B4008A35A625CF
:100D48008A35833203332D3A8D2DAE3F842D0A190F
:100D50003502F019033934020338582DB00A592DE1
:100D5800B001EA1903375F02601903395E020338EC
:100D60008A2DDE0A0339DF0A00195F0202190339EE
:100D68005E02033C722D0333AE3C722D3508B7008A
:100D70003408B6000337600A0339610A0339620A8E
:100D78000339630A03398A2DE00A0339E10A033982
:100D8000E20A0339E30A8A2D8A31B0258A358A3589
:100D8800A2238A358A3113208A35833203334508F2
:100D90000339942DC503992D4308C5008A31672274
:100D98008A358A3526238A352D3CA22D8A31C120F1
:100DA0008A35252D8A3510248A35252DAD3E822E93
:100DA800AE3FAF2DBD01BE01BF01C00140002D3DCA
:100DB000112E3408141CC70035080338011CC80064
:100DB80042084802033DBE2D41084702033CAD38B6
:100DC000CC2DBD01BE01B4268A3503393F02033C58
:100DC800F02DBF01C001F02DBF01C001AD34AD3918
:100DD000EA2D0F193502B419033934020338EA2D0C
:100DD80003303C0DAD268A3100268A35C7008A319A
:100DE00000268A35C8003502033DE82D4708340245
:100DE800033CEE2DBD0A0339BE0AF02DBD01BE013C
:100DF0000A193C02033CFC2D5A193C020338FC2D15
:100DF800B819CA000B19FF2DA019CA000F19CB008A
:100E00003E02033D052E4A083D02033C40006419A2
:100E0800BD01BE013C02033CBC0A3C08033DAE31B7
:100E100040000219BD01BE013C02033C712E0330AB
:100E18003C0DAD268A3100268A35C7008A31002666
:100E20008A35C8003502033D272E470834020338AF
:100E28002D2EBF0A0339C00A2F2EBF01C001001999
:100E30004002641903393F02033C4000BF01C00176
:100E38003C08CC00CC080339502ECC0303304C0DB1
:100E4000AD268A3100268A35C7008A3100268A35C8
:100E4800C8003502033D4E2E47083402033C3A2EB3
:100E50004C081E1CC700001903380119C800801D6A
:100E5800C90080194902033D5F2E3C084702033848
:100E60004000833203334C08BC006F2EB4268A3511
:100E680003393F02033C4000BF01C001BC01AD345F
:100E700040000C193502B21903393402033C662EC6
:100E78000C19BF01C0013502E419033934020338E3
:100E800040006E2E4608101D0339A82EAD36BD0158
:100E8800BE01BF01C001AD34BC0164193C02033886
:100E9000A52E03303C0DAD268A3100268A35C700C9
:100E98008A3100268A35C8004202033DA12E470840
:100EA0004102033CA52EBC0A8D2E3C08B100400037
:100EA8003508C2003408C1004000121C84008619AD
:100EB0000338011CFF004000BF0A0339C00A0019B3
:100EB80040026418833607080F1B301A87008332F4
:100EC00003198531C701C70A19278A350319C701D4
:100EC800C70A19278A354808E5004708E400853528
:100ED000833607080F1B901A870083320F19853558
:100ED8006502FA1903396402033CE22EFF19E400A3
:100EE000E500142F001965021E1903396402033846
:100EE800EC2EE401E501142F1019E201E300640877
:100EF0006202D3006508033C650A6302D400D50191
:100EF800D6016408C7006508C8001219C901CA01EB
:100F0000CE01CD01CC005C19CB0083278A354A087D
:100F0800DA004908D9004808D8004708D700B627AA
:100F10005408E5005308E4006508E1006408E000B7
:100F18004000CB001019CF01D000E019D101D20157
:100F2000CC01CD01CE0199054B089904983598392B
:100F2800272F1708D300F019D401D30ED40ED405F7
:100F300053080F1BD404F019D305180E0F1BD3044C
:100F380050085402033D3E2F4F0853020338442FF4
:100F40005408D0005308CF0052085402033D4A2FE2
:100F480051085302033C502F5408D2005308D100D3
:100F50005308CC070338CD0A5408CD074708033996
:100F58005E2F0619CE0A4E02033C262F4708033996
:100F60007E2F51084F07C90052080338520A500714
:100F6800CA00C909CA09C90A0339CA0A4908D30003
:100F70004A08D4004C08D3070338D40A4D08D407D4
:100F78000330D40CD30C0330D40CD30C5408C80061
:100F80005308C7004000CF01D001D101D201473C36
:100F88009D2F4B08CF074C0803310338011C033D44
:100F9000D0074D0803310338011C033DD1074E082B
:100F980003310338011C033DD2070330CB0DCC0DC0
:100FA000CD0DCE0D0330CA0CC90CC80CC70C4A08B5
:100FA800490448044704033D872F5208CA005108E2
:100FB000C9005008C8004F08C7004000DB01DC0131
:100FB800DD01DE0156085504540453040339F52FA6
:100FC000DF01DF0AD63BCA2F0330D30DD40DD50D78
:100FC800D60DC12F0330DB0DDC0DDD0DDE0D56080F
:100FD0005A02033DDD2F55085902033DDD2F540809
:100FD8005802033DDD2F53085702033CEF2F5308F7
:100FE000D7025408033C540FD8025508033C550F50
:100FE800D9025608033C560FDA025B340330D60C9C
:100FF000D50CD40CD30CDF0BCA2F5E08D6005D08CD
:100FF800D5005C08D4005B08D30040000018001836
:00000001FF
